{
  "_format": "hh-sol-artifact-1",
  "contractName": "ethBLOCKIE",
  "sourceName": "contracts/ethBLOCKIES.sol",
  "abi": [
    {
      "inputs": [
        {
          "internalType": "string",
          "name": "uri",
          "type": "string"
        },
        {
          "internalType": "bytes32",
          "name": "merkleroot",
          "type": "bytes32"
        },
        {
          "internalType": "address",
          "name": "_proxyRegistryAddress",
          "type": "address"
        }
      ],
      "stateMutability": "nonpayable",
      "type": "constructor"
    },
    {
      "anonymous": false,
      "inputs": [
        {
          "indexed": true,
          "internalType": "address",
          "name": "owner",
          "type": "address"
        },
        {
          "indexed": true,
          "internalType": "address",
          "name": "approved",
          "type": "address"
        },
        {
          "indexed": true,
          "internalType": "uint256",
          "name": "tokenId",
          "type": "uint256"
        }
      ],
      "name": "Approval",
      "type": "event"
    },
    {
      "anonymous": false,
      "inputs": [
        {
          "indexed": true,
          "internalType": "address",
          "name": "owner",
          "type": "address"
        },
        {
          "indexed": true,
          "internalType": "address",
          "name": "operator",
          "type": "address"
        },
        {
          "indexed": false,
          "internalType": "bool",
          "name": "approved",
          "type": "bool"
        }
      ],
      "name": "ApprovalForAll",
      "type": "event"
    },
    {
      "anonymous": false,
      "inputs": [
        {
          "indexed": true,
          "internalType": "contract IERC20",
          "name": "token",
          "type": "address"
        },
        {
          "indexed": false,
          "internalType": "address",
          "name": "to",
          "type": "address"
        },
        {
          "indexed": false,
          "internalType": "uint256",
          "name": "amount",
          "type": "uint256"
        }
      ],
      "name": "ERC20PaymentReleased",
      "type": "event"
    },
    {
      "anonymous": false,
      "inputs": [
        {
          "indexed": true,
          "internalType": "address",
          "name": "previousOwner",
          "type": "address"
        },
        {
          "indexed": true,
          "internalType": "address",
          "name": "newOwner",
          "type": "address"
        }
      ],
      "name": "OwnershipTransferred",
      "type": "event"
    },
    {
      "anonymous": false,
      "inputs": [
        {
          "indexed": false,
          "internalType": "address",
          "name": "account",
          "type": "address"
        },
        {
          "indexed": false,
          "internalType": "uint256",
          "name": "shares",
          "type": "uint256"
        }
      ],
      "name": "PayeeAdded",
      "type": "event"
    },
    {
      "anonymous": false,
      "inputs": [
        {
          "indexed": false,
          "internalType": "address",
          "name": "from",
          "type": "address"
        },
        {
          "indexed": false,
          "internalType": "uint256",
          "name": "amount",
          "type": "uint256"
        }
      ],
      "name": "PaymentReceived",
      "type": "event"
    },
    {
      "anonymous": false,
      "inputs": [
        {
          "indexed": false,
          "internalType": "address",
          "name": "to",
          "type": "address"
        },
        {
          "indexed": false,
          "internalType": "uint256",
          "name": "amount",
          "type": "uint256"
        }
      ],
      "name": "PaymentReleased",
      "type": "event"
    },
    {
      "anonymous": false,
      "inputs": [
        {
          "indexed": true,
          "internalType": "address",
          "name": "from",
          "type": "address"
        },
        {
          "indexed": true,
          "internalType": "address",
          "name": "to",
          "type": "address"
        },
        {
          "indexed": true,
          "internalType": "uint256",
          "name": "tokenId",
          "type": "uint256"
        }
      ],
      "name": "Transfer",
      "type": "event"
    },
    {
      "inputs": [
        {
          "internalType": "address",
          "name": "",
          "type": "address"
        }
      ],
      "name": "_presaleClaimed",
      "outputs": [
        {
          "internalType": "uint256",
          "name": "",
          "type": "uint256"
        }
      ],
      "stateMutability": "view",
      "type": "function"
    },
    {
      "inputs": [
        {
          "internalType": "address",
          "name": "to",
          "type": "address"
        },
        {
          "internalType": "uint256",
          "name": "tokenId",
          "type": "uint256"
        }
      ],
      "name": "approve",
      "outputs": [],
      "stateMutability": "nonpayable",
      "type": "function"
    },
    {
      "inputs": [
        {
          "internalType": "address",
          "name": "owner",
          "type": "address"
        }
      ],
      "name": "balanceOf",
      "outputs": [
        {
          "internalType": "uint256",
          "name": "",
          "type": "uint256"
        }
      ],
      "stateMutability": "view",
      "type": "function"
    },
    {
      "inputs": [],
      "name": "baseExtension",
      "outputs": [
        {
          "internalType": "string",
          "name": "",
          "type": "string"
        }
      ],
      "stateMutability": "view",
      "type": "function"
    },
    {
      "inputs": [],
      "name": "baseURI",
      "outputs": [
        {
          "internalType": "string",
          "name": "",
          "type": "string"
        }
      ],
      "stateMutability": "view",
      "type": "function"
    },
    {
      "inputs": [
        {
          "internalType": "uint256",
          "name": "tokenId",
          "type": "uint256"
        }
      ],
      "name": "getApproved",
      "outputs": [
        {
          "internalType": "address",
          "name": "",
          "type": "address"
        }
      ],
      "stateMutability": "view",
      "type": "function"
    },
    {
      "inputs": [
        {
          "internalType": "address",
          "name": "owner",
          "type": "address"
        },
        {
          "internalType": "address",
          "name": "operator",
          "type": "address"
        }
      ],
      "name": "isApprovedForAll",
      "outputs": [
        {
          "internalType": "bool",
          "name": "",
          "type": "bool"
        }
      ],
      "stateMutability": "view",
      "type": "function"
    },
    {
      "inputs": [],
      "name": "maxSupply",
      "outputs": [
        {
          "internalType": "uint256",
          "name": "",
          "type": "uint256"
        }
      ],
      "stateMutability": "view",
      "type": "function"
    },
    {
      "inputs": [],
      "name": "name",
      "outputs": [
        {
          "internalType": "string",
          "name": "",
          "type": "string"
        }
      ],
      "stateMutability": "view",
      "type": "function"
    },
    {
      "inputs": [],
      "name": "notRevealedUri",
      "outputs": [
        {
          "internalType": "string",
          "name": "",
          "type": "string"
        }
      ],
      "stateMutability": "view",
      "type": "function"
    },
    {
      "inputs": [],
      "name": "owner",
      "outputs": [
        {
          "internalType": "address",
          "name": "",
          "type": "address"
        }
      ],
      "stateMutability": "view",
      "type": "function"
    },
    {
      "inputs": [
        {
          "internalType": "uint256",
          "name": "tokenId",
          "type": "uint256"
        }
      ],
      "name": "ownerOf",
      "outputs": [
        {
          "internalType": "address",
          "name": "",
          "type": "address"
        }
      ],
      "stateMutability": "view",
      "type": "function"
    },
    {
      "inputs": [],
      "name": "paused",
      "outputs": [
        {
          "internalType": "bool",
          "name": "",
          "type": "bool"
        }
      ],
      "stateMutability": "view",
      "type": "function"
    },
    {
      "inputs": [
        {
          "internalType": "uint256",
          "name": "index",
          "type": "uint256"
        }
      ],
      "name": "payee",
      "outputs": [
        {
          "internalType": "address",
          "name": "",
          "type": "address"
        }
      ],
      "stateMutability": "view",
      "type": "function"
    },
    {
      "inputs": [],
      "name": "presaleM",
      "outputs": [
        {
          "internalType": "bool",
          "name": "",
          "type": "bool"
        }
      ],
      "stateMutability": "view",
      "type": "function"
    },
    {
      "inputs": [
        {
          "internalType": "address",
          "name": "account",
          "type": "address"
        },
        {
          "internalType": "uint256",
          "name": "_amount",
          "type": "uint256"
        },
        {
          "internalType": "bytes32[]",
          "name": "_proof",
          "type": "bytes32[]"
        }
      ],
      "name": "presaleMint",
      "outputs": [],
      "stateMutability": "payable",
      "type": "function"
    },
    {
      "inputs": [],
      "name": "publicM",
      "outputs": [
        {
          "internalType": "bool",
          "name": "",
          "type": "bool"
        }
      ],
      "stateMutability": "view",
      "type": "function"
    },
    {
      "inputs": [
        {
          "internalType": "uint256",
          "name": "_amount",
          "type": "uint256"
        }
      ],
      "name": "publicSaleMint",
      "outputs": [],
      "stateMutability": "payable",
      "type": "function"
    },
    {
      "inputs": [
        {
          "internalType": "address",
          "name": "account",
          "type": "address"
        }
      ],
      "name": "releasable",
      "outputs": [
        {
          "internalType": "uint256",
          "name": "",
          "type": "uint256"
        }
      ],
      "stateMutability": "view",
      "type": "function"
    },
    {
      "inputs": [
        {
          "internalType": "contract IERC20",
          "name": "token",
          "type": "address"
        },
        {
          "internalType": "address",
          "name": "account",
          "type": "address"
        }
      ],
      "name": "releasable",
      "outputs": [
        {
          "internalType": "uint256",
          "name": "",
          "type": "uint256"
        }
      ],
      "stateMutability": "view",
      "type": "function"
    },
    {
      "inputs": [
        {
          "internalType": "address payable",
          "name": "account",
          "type": "address"
        }
      ],
      "name": "release",
      "outputs": [],
      "stateMutability": "nonpayable",
      "type": "function"
    },
    {
      "inputs": [
        {
          "internalType": "contract IERC20",
          "name": "token",
          "type": "address"
        },
        {
          "internalType": "address",
          "name": "account",
          "type": "address"
        }
      ],
      "name": "release",
      "outputs": [],
      "stateMutability": "nonpayable",
      "type": "function"
    },
    {
      "inputs": [
        {
          "internalType": "contract IERC20",
          "name": "token",
          "type": "address"
        },
        {
          "internalType": "address",
          "name": "account",
          "type": "address"
        }
      ],
      "name": "released",
      "outputs": [
        {
          "internalType": "uint256",
          "name": "",
          "type": "uint256"
        }
      ],
      "stateMutability": "view",
      "type": "function"
    },
    {
      "inputs": [
        {
          "internalType": "address",
          "name": "account",
          "type": "address"
        }
      ],
      "name": "released",
      "outputs": [
        {
          "internalType": "uint256",
          "name": "",
          "type": "uint256"
        }
      ],
      "stateMutability": "view",
      "type": "function"
    },
    {
      "inputs": [],
      "name": "renounceOwnership",
      "outputs": [],
      "stateMutability": "nonpayable",
      "type": "function"
    },
    {
      "inputs": [],
      "name": "reveal",
      "outputs": [],
      "stateMutability": "nonpayable",
      "type": "function"
    },
    {
      "inputs": [],
      "name": "revealed",
      "outputs": [
        {
          "internalType": "bool",
          "name": "",
          "type": "bool"
        }
      ],
      "stateMutability": "view",
      "type": "function"
    },
    {
      "inputs": [],
      "name": "root",
      "outputs": [
        {
          "internalType": "bytes32",
          "name": "",
          "type": "bytes32"
        }
      ],
      "stateMutability": "view",
      "type": "function"
    },
    {
      "inputs": [
        {
          "internalType": "address",
          "name": "from",
          "type": "address"
        },
        {
          "internalType": "address",
          "name": "to",
          "type": "address"
        },
        {
          "internalType": "uint256",
          "name": "tokenId",
          "type": "uint256"
        }
      ],
      "name": "safeTransferFrom",
      "outputs": [],
      "stateMutability": "nonpayable",
      "type": "function"
    },
    {
      "inputs": [
        {
          "internalType": "address",
          "name": "from",
          "type": "address"
        },
        {
          "internalType": "address",
          "name": "to",
          "type": "address"
        },
        {
          "internalType": "uint256",
          "name": "tokenId",
          "type": "uint256"
        },
        {
          "internalType": "bytes",
          "name": "data",
          "type": "bytes"
        }
      ],
      "name": "safeTransferFrom",
      "outputs": [],
      "stateMutability": "nonpayable",
      "type": "function"
    },
    {
      "inputs": [
        {
          "internalType": "address",
          "name": "operator",
          "type": "address"
        },
        {
          "internalType": "bool",
          "name": "approved",
          "type": "bool"
        }
      ],
      "name": "setApprovalForAll",
      "outputs": [],
      "stateMutability": "nonpayable",
      "type": "function"
    },
    {
      "inputs": [
        {
          "internalType": "string",
          "name": "_newBaseExtension",
          "type": "string"
        }
      ],
      "name": "setBaseExtension",
      "outputs": [],
      "stateMutability": "nonpayable",
      "type": "function"
    },
    {
      "inputs": [
        {
          "internalType": "string",
          "name": "_tokenBaseURI",
          "type": "string"
        }
      ],
      "name": "setBaseURI",
      "outputs": [],
      "stateMutability": "nonpayable",
      "type": "function"
    },
    {
      "inputs": [
        {
          "internalType": "bytes32",
          "name": "merkleroot",
          "type": "bytes32"
        }
      ],
      "name": "setMerkleRoot",
      "outputs": [],
      "stateMutability": "nonpayable",
      "type": "function"
    },
    {
      "inputs": [
        {
          "internalType": "string",
          "name": "_notRevealedURI",
          "type": "string"
        }
      ],
      "name": "setNotRevealedURI",
      "outputs": [],
      "stateMutability": "nonpayable",
      "type": "function"
    },
    {
      "inputs": [
        {
          "internalType": "address",
          "name": "account",
          "type": "address"
        }
      ],
      "name": "shares",
      "outputs": [
        {
          "internalType": "uint256",
          "name": "",
          "type": "uint256"
        }
      ],
      "stateMutability": "view",
      "type": "function"
    },
    {
      "inputs": [
        {
          "internalType": "bytes4",
          "name": "interfaceId",
          "type": "bytes4"
        }
      ],
      "name": "supportsInterface",
      "outputs": [
        {
          "internalType": "bool",
          "name": "",
          "type": "bool"
        }
      ],
      "stateMutability": "view",
      "type": "function"
    },
    {
      "inputs": [],
      "name": "symbol",
      "outputs": [
        {
          "internalType": "string",
          "name": "",
          "type": "string"
        }
      ],
      "stateMutability": "view",
      "type": "function"
    },
    {
      "inputs": [],
      "name": "togglePause",
      "outputs": [],
      "stateMutability": "nonpayable",
      "type": "function"
    },
    {
      "inputs": [],
      "name": "togglePresale",
      "outputs": [],
      "stateMutability": "nonpayable",
      "type": "function"
    },
    {
      "inputs": [],
      "name": "togglePublicSale",
      "outputs": [],
      "stateMutability": "nonpayable",
      "type": "function"
    },
    {
      "inputs": [
        {
          "internalType": "uint256",
          "name": "tokenId",
          "type": "uint256"
        }
      ],
      "name": "tokenURI",
      "outputs": [
        {
          "internalType": "string",
          "name": "",
          "type": "string"
        }
      ],
      "stateMutability": "view",
      "type": "function"
    },
    {
      "inputs": [
        {
          "internalType": "contract IERC20",
          "name": "token",
          "type": "address"
        }
      ],
      "name": "totalReleased",
      "outputs": [
        {
          "internalType": "uint256",
          "name": "",
          "type": "uint256"
        }
      ],
      "stateMutability": "view",
      "type": "function"
    },
    {
      "inputs": [],
      "name": "totalReleased",
      "outputs": [
        {
          "internalType": "uint256",
          "name": "",
          "type": "uint256"
        }
      ],
      "stateMutability": "view",
      "type": "function"
    },
    {
      "inputs": [],
      "name": "totalShares",
      "outputs": [
        {
          "internalType": "uint256",
          "name": "",
          "type": "uint256"
        }
      ],
      "stateMutability": "view",
      "type": "function"
    },
    {
      "inputs": [],
      "name": "totalSupply",
      "outputs": [
        {
          "internalType": "uint256",
          "name": "",
          "type": "uint256"
        }
      ],
      "stateMutability": "view",
      "type": "function"
    },
    {
      "inputs": [
        {
          "internalType": "address",
          "name": "from",
          "type": "address"
        },
        {
          "internalType": "address",
          "name": "to",
          "type": "address"
        },
        {
          "internalType": "uint256",
          "name": "tokenId",
          "type": "uint256"
        }
      ],
      "name": "transferFrom",
      "outputs": [],
      "stateMutability": "nonpayable",
      "type": "function"
    },
    {
      "inputs": [
        {
          "internalType": "address",
          "name": "newOwner",
          "type": "address"
        }
      ],
      "name": "transferOwnership",
      "outputs": [],
      "stateMutability": "nonpayable",
      "type": "function"
    },
    {
      "stateMutability": "payable",
      "type": "receive"
    }
  ],
  "bytecode": "0x601460115561010060405260416080818152906200393160a03980516200002f91601391602090910190620006ab565b5060408051808201909152600580825264173539b7b760d91b60209092019182526200005e91601491620006ab565b506015805463ffffffff191690556005601655662386f26fc10000601855604080516060810182526019815260236020820152602891810191909152620000aa90601a9060036200073a565b506040805160608101825273e2e41c619a4449671f23c44610bb3e83adfdc80d815273e28556e8b63172b005913c91b13bf8dc49d618916020820152734aaaab8812e6a0e44f8544b944a42a7b89607a16918101919091526200011290601b9060036200077d565b503480156200012057600080fd5b50604051620039723803806200397283398101604081905262000143916200081f565b601b8054806020026020016040519081016040528092919081815260200182805480156200019b57602002820191906000526020600020905b81546001600160a01b031681526001909101906020018083116200017c575b5050505050601a805480602002602001604051908101604052809291908181526020018280548015620001ee57602002820191906000526020600020905b815481526020019060010190808311620001d9575b5050604080518082018252600a815269657468424c4f434b494560b01b602080830191825283518085019094526007845266657468424c4b4960c81b90840152815191955091935062000246925060009190620006ab565b5080516200025c906001906020840190620006ab565b5050506200027962000273620003e660201b60201c565b620003ea565b60016007558051825114620002f05760405162461bcd60e51b815260206004820152603260248201527f5061796d656e7453706c69747465723a2070617965657320616e6420736861726044820152710cae640d8cadccee8d040dad2e6dac2e8c6d60731b60648201526084015b60405180910390fd5b6000825111620003435760405162461bcd60e51b815260206004820152601a60248201527f5061796d656e7453706c69747465723a206e6f207061796565730000000000006044820152606401620002e7565b60005b8251811015620003af576200039a8382815181106200036957620003696200091a565b60200260200101518383815181106200038657620003866200091a565b60200260200101516200043c60201b60201c565b80620003a68162000946565b91505062000346565b505050600f829055601080546001600160a01b0319166001600160a01b038316179055620003dd836200062a565b505050620009bc565b3390565b600680546001600160a01b038381166001600160a01b0319831681179093556040519116919082907f8be0079c531659141344cd1fd0a4f28419497f9722a3daafe3b4186f6b6457e090600090a35050565b6001600160a01b038216620004a95760405162461bcd60e51b815260206004820152602c60248201527f5061796d656e7453706c69747465723a206163636f756e74206973207468652060448201526b7a65726f206164647265737360a01b6064820152608401620002e7565b60008111620004fb5760405162461bcd60e51b815260206004820152601d60248201527f5061796d656e7453706c69747465723a207368617265732061726520300000006044820152606401620002e7565b6001600160a01b0382166000908152600a602052604090205415620005775760405162461bcd60e51b815260206004820152602b60248201527f5061796d656e7453706c69747465723a206163636f756e7420616c726561647960448201526a206861732073686172657360a81b6064820152608401620002e7565b600c8054600181019091557fdf6966c971051c3d54ec59162606531493a51404a002842f56009d7e5cf4a8c70180546001600160a01b0319166001600160a01b0384169081179091556000908152600a60205260409020819055600854620005e190829062000964565b600855604080516001600160a01b0384168152602081018390527f40c340f65e17194d14ddddb073d3c9f888e3cb52b5aae0c6c7706b4fbc905fac910160405180910390a15050565b620006346200064d565b805162000649906012906020840190620006ab565b5050565b6006546001600160a01b03163314620006a95760405162461bcd60e51b815260206004820181905260248201527f4f776e61626c653a2063616c6c6572206973206e6f7420746865206f776e65726044820152606401620002e7565b565b828054620006b9906200097f565b90600052602060002090601f016020900481019282620006dd576000855562000728565b82601f10620006f857805160ff191683800117855562000728565b8280016001018555821562000728579182015b82811115620007285782518255916020019190600101906200070b565b5062000736929150620007d5565b5090565b82805482825590600052602060002090810192821562000728579160200282015b8281111562000728578251829060ff169055916020019190600101906200075b565b82805482825590600052602060002090810192821562000728579160200282015b828111156200072857825182546001600160a01b0319166001600160a01b039091161782556020909201916001909101906200079e565b5b80821115620007365760008155600101620007d6565b634e487b7160e01b600052604160045260246000fd5b80516001600160a01b03811681146200081a57600080fd5b919050565b6000806000606084860312156200083557600080fd5b83516001600160401b03808211156200084d57600080fd5b818601915086601f8301126200086257600080fd5b815181811115620008775762000877620007ec565b604051601f8201601f19908116603f01168101908382118183101715620008a257620008a2620007ec565b81604052828152602093508984848701011115620008bf57600080fd5b600091505b82821015620008e35784820184015181830185015290830190620008c4565b82821115620008f55760008484830101525b8097505050508086015193505050620009116040850162000802565b90509250925092565b634e487b7160e01b600052603260045260246000fd5b634e487b7160e01b600052601160045260246000fd5b60006000198214156200095d576200095d62000930565b5060010190565b600082198211156200097a576200097a62000930565b500190565b600181811c908216806200099457607f821691505b60208210811415620009b657634e487b7160e01b600052602260045260246000fd5b50919050565b612f6580620009cc6000396000f3fe6080604052600436106102975760003560e01c80638da5cb5b1161015a578063c6682862116100c1578063e222c7f91161007a578063e222c7f91461083f578063e33b7de314610854578063e985e9c514610869578063ebf0c71714610889578063f2c4ce1e1461089f578063f2fde38b146108bf57600080fd5b8063c668286214610768578063c87b56dd1461077d578063ce7c2ac21461079d578063d5abeb01146107d3578063d79779b2146107e9578063da3ef23f1461081f57600080fd5b8063a45063c011610113578063a45063c0146106ca578063a475b5dd146106eb578063b3ab66b014610700578063b88d4fde14610713578063c45ac05014610733578063c4ae31681461075357600080fd5b80638da5cb5b1461060e578063954dc3e31461062c57806395d89b411461063f5780639852595c14610654578063a22cb4651461068a578063a3f8eace146106aa57600080fd5b806342842e0e116101fe5780636c0360eb116101b75780636c0360eb1461055757806370a082311461056c578063715018a61461058c5780637cb64759146105a15780638b83209b146105c15780638cc4de19146105e157600080fd5b806342842e0e1461049e57806348b75044146104be57806351830227146104de57806355f804b3146104fd5780635c975abb1461051d5780636352211e1461053757600080fd5b806318160ddd1161025057806318160ddd146103cb57806319165587146103ee57806323b872dd1461040e578063343937431461042e5780633a98ef3914610443578063406072a91461045857600080fd5b806301ffc9a7146102e557806306fdde031461031a578063081812fc1461033c578063081c8c4414610374578063095ea7b3146103895780631798d58b146103ab57600080fd5b366102e0577f6ef95f06320e7a25a04a175ca677b7052bdd97131872c2192525a629f51be77033604080516001600160a01b0390921682523460208301520160405180910390a1005b600080fd5b3480156102f157600080fd5b50610305610300366004612714565b6108df565b60405190151581526020015b60405180910390f35b34801561032657600080fd5b5061032f610931565b6040516103119190612789565b34801561034857600080fd5b5061035c61035736600461279c565b6109c3565b6040516001600160a01b039091168152602001610311565b34801561038057600080fd5b5061032f6109ea565b34801561039557600080fd5b506103a96103a43660046127ca565b610a78565b005b3480156103b757600080fd5b506015546103059062010000900460ff1681565b3480156103d757600080fd5b506103e0610b93565b604051908152602001610311565b3480156103fa57600080fd5b506103a96104093660046127f6565b610ba3565b34801561041a57600080fd5b506103a9610429366004612813565b610c99565b34801561043a57600080fd5b506103a9610cca565b34801561044f57600080fd5b506008546103e0565b34801561046457600080fd5b506103e0610473366004612854565b6001600160a01b039182166000908152600e6020908152604080832093909416825291909152205490565b3480156104aa57600080fd5b506103a96104b9366004612813565b610cf1565b3480156104ca57600080fd5b506103a96104d9366004612854565b610d0c565b3480156104ea57600080fd5b5060155461030590610100900460ff1681565b34801561050957600080fd5b506103a9610518366004612919565b610e2c565b34801561052957600080fd5b506015546103059060ff1681565b34801561054357600080fd5b5061035c61055236600461279c565b610e4b565b34801561056357600080fd5b5061032f610eab565b34801561057857600080fd5b506103e06105873660046127f6565b610eb8565b34801561059857600080fd5b506103a9610f3e565b3480156105ad57600080fd5b506103a96105bc36600461279c565b610f52565b3480156105cd57600080fd5b5061035c6105dc36600461279c565b610f5f565b3480156105ed57600080fd5b506103e06105fc3660046127f6565b60176020526000908152604090205481565b34801561061a57600080fd5b506006546001600160a01b031661035c565b6103a961063a366004612962565b610f8f565b34801561064b57600080fd5b5061032f611291565b34801561066057600080fd5b506103e061066f3660046127f6565b6001600160a01b03166000908152600b602052604090205490565b34801561069657600080fd5b506103a96106a53660046129fc565b6112a0565b3480156106b657600080fd5b506103e06106c53660046127f6565b6112ab565b3480156106d657600080fd5b50601554610305906301000000900460ff1681565b3480156106f757600080fd5b506103a96112f3565b6103a961070e36600461279c565b61130c565b34801561071f57600080fd5b506103a961072e366004612a2a565b6114e2565b34801561073f57600080fd5b506103e061074e366004612854565b61151a565b34801561075f57600080fd5b506103a96115f4565b34801561077457600080fd5b5061032f611610565b34801561078957600080fd5b5061032f61079836600461279c565b61161d565b3480156107a957600080fd5b506103e06107b83660046127f6565b6001600160a01b03166000908152600a602052604090205490565b3480156107df57600080fd5b506103e060115481565b3480156107f557600080fd5b506103e06108043660046127f6565b6001600160a01b03166000908152600d602052604090205490565b34801561082b57600080fd5b506103a961083a366004612919565b61179b565b34801561084b57600080fd5b506103a96117b6565b34801561086057600080fd5b506009546103e0565b34801561087557600080fd5b50610305610884366004612854565b6117df565b34801561089557600080fd5b506103e0600f5481565b3480156108ab57600080fd5b506103a96108ba366004612919565b6118ab565b3480156108cb57600080fd5b506103a96108da3660046127f6565b6118c6565b60006001600160e01b031982166380ac58cd60e01b148061091057506001600160e01b03198216635b5e139f60e01b145b8061092b57506301ffc9a760e01b6001600160e01b03198316145b92915050565b60606000805461094090612aaa565b80601f016020809104026020016040519081016040528092919081815260200182805461096c90612aaa565b80156109b95780601f1061098e576101008083540402835291602001916109b9565b820191906000526020600020905b81548152906001019060200180831161099c57829003601f168201915b5050505050905090565b60006109ce8261193f565b506000908152600460205260409020546001600160a01b031690565b601380546109f790612aaa565b80601f0160208091040260200160405190810160405280929190818152602001828054610a2390612aaa565b8015610a705780601f10610a4557610100808354040283529160200191610a70565b820191906000526020600020905b815481529060010190602001808311610a5357829003601f168201915b505050505081565b6000610a8382610e4b565b9050806001600160a01b0316836001600160a01b03161415610af65760405162461bcd60e51b815260206004820152602160248201527f4552433732313a20617070726f76616c20746f2063757272656e74206f776e656044820152603960f91b60648201526084015b60405180910390fd5b336001600160a01b0382161480610b125750610b1281336117df565b610b845760405162461bcd60e51b815260206004820152603e60248201527f4552433732313a20617070726f76652063616c6c6572206973206e6f7420746f60448201527f6b656e206f776e6572206e6f7220617070726f76656420666f7220616c6c00006064820152608401610aed565b610b8e838361199e565b505050565b6000610b9e60195490565b905090565b6001600160a01b0381166000908152600a6020526040902054610bd85760405162461bcd60e51b8152600401610aed90612ae5565b6000610be3826112ab565b905080610c025760405162461bcd60e51b8152600401610aed90612b2b565b6001600160a01b0382166000908152600b602052604081208054839290610c2a908490612b8c565b925050819055508060096000828254610c439190612b8c565b90915550610c5390508282611a0c565b604080516001600160a01b0384168152602081018390527fdf20fd1e76bc69d672e4814fafb2c449bba3a5369d8359adf9e05e6fde87b056910160405180910390a15050565b610ca33382611b25565b610cbf5760405162461bcd60e51b8152600401610aed90612ba4565b610b8e838383611b83565b610cd2611d1f565b6015805462ff0000198116620100009182900460ff1615909102179055565b610b8e838383604051806020016040528060008152506114e2565b6001600160a01b0381166000908152600a6020526040902054610d415760405162461bcd60e51b8152600401610aed90612ae5565b6000610d4d838361151a565b905080610d6c5760405162461bcd60e51b8152600401610aed90612b2b565b6001600160a01b038084166000908152600e6020908152604080832093861683529290529081208054839290610da3908490612b8c565b90915550506001600160a01b0383166000908152600d602052604081208054839290610dd0908490612b8c565b90915550610de19050838383611d79565b604080516001600160a01b038481168252602082018490528516917f3be5b7a71e84ed12875d241991c70855ac5817d847039e17a9d895c1ceb0f18a910160405180910390a2505050565b610e34611d1f565b8051610e47906012906020840190612665565b5050565b6000818152600260205260408120546001600160a01b03168061092b5760405162461bcd60e51b8152602060048201526018602482015277115490cdcc8c4e881a5b9d985b1a59081d1bdad95b88125160421b6044820152606401610aed565b601280546109f790612aaa565b60006001600160a01b038216610f225760405162461bcd60e51b815260206004820152602960248201527f4552433732313a2061646472657373207a65726f206973206e6f7420612076616044820152683634b21037bbb732b960b91b6064820152608401610aed565b506001600160a01b031660009081526003602052604090205490565b610f46611d1f565b610f506000611dcb565b565b610f5a611d1f565b600f55565b6000600c8281548110610f7457610f74612bf2565b6000918252602090912001546001600160a01b031692915050565b818161100682828080602002602001604051908101604052809392919081815260200183836020028082843760009201919091525050600f546040516bffffffffffffffffffffffff193360601b166020820152909250603401905060405160208183030381529060405280519060200120611e1d565b15156001146110275760405162461bcd60e51b8152600401610aed90612c08565b3332146110465760405162461bcd60e51b8152600401610aed90612c08565b336001600160a01b0387161461109e5760405162461bcd60e51b815260206004820152601860248201527f657468424c4f434b4945533a204e6f7420616c6c6f77656400000000000000006044820152606401610aed565b60155462010000900460ff166110f65760405162461bcd60e51b815260206004820152601b60248201527f657468424c4f434b4945533a2050726573616c65206973204f464600000000006044820152606401610aed565b60155460ff16156111495760405162461bcd60e51b815260206004820152601f60248201527f657468424c4f434b4945533a20436f6e747261637420697320706175736564006044820152606401610aed565b60165485111561116b5760405162461bcd60e51b8152600401610aed90612c34565b60165433600090815260176020526040902054611189908790612b8c565b11156111a75760405162461bcd60e51b8152600401610aed90612c34565b60006111b260195490565b6011549091506111c28783612b8c565b11156112105760405162461bcd60e51b815260206004820181905260248201527f657468424c4f434b4945533a206d617820737570706c792065786365656465646044820152606401610aed565b348660185461121f9190612c7e565b111561123d5760405162461bcd60e51b8152600401610aed90612c9d565b336000908152601760205260408120805488929061125c908490612b8c565b90915550600090505b8681101561128757611275611e33565b8061127f81612ce0565b915050611265565b5050505050505050565b60606001805461094090612aaa565b610e47338383611eb8565b6000806112b760095490565b6112c19047612b8c565b90506112ec83826112e7866001600160a01b03166000908152600b602052604090205490565b611f87565b9392505050565b6112fb611d1f565b6015805461ff001916610100179055565b33321461132b5760405162461bcd60e51b8152600401610aed90612c08565b6015546301000000900460ff166113845760405162461bcd60e51b815260206004820152601e60248201527f657468424c4f434b4945533a205075626c696353616c65206973204f464600006044820152606401610aed565b60155460ff16156113d75760405162461bcd60e51b815260206004820152601f60248201527f657468424c4f434b4945533a20436f6e747261637420697320706175736564006044820152606401610aed565b600081116114275760405162461bcd60e51b815260206004820152601860248201527f657468424c4f434b4945533a207a65726f20616d6f756e7400000000000000006044820152606401610aed565b600061143260195490565b6011549091506114428383612b8c565b11156114905760405162461bcd60e51b815260206004820181905260248201527f657468424c4f434b4945533a204d617820737570706c792065786365656465646044820152606401610aed565b348260185461149f9190612c7e565b11156114bd5760405162461bcd60e51b8152600401610aed90612c9d565b60005b82811015610b8e576114d0611e33565b806114da81612ce0565b9150506114c0565b6114ec3383611b25565b6115085760405162461bcd60e51b8152600401610aed90612ba4565b61151484848484611fc5565b50505050565b6001600160a01b0382166000908152600d602052604081205481906040516370a0823160e01b81523060048201526001600160a01b038616906370a082319060240160206040518083038186803b15801561157457600080fd5b505afa158015611588573d6000803e3d6000fd5b505050506040513d601f19601f820116820180604052508101906115ac9190612cfb565b6115b69190612b8c565b6001600160a01b038086166000908152600e60209081526040808320938816835292905220549091506115ec9084908390611f87565b949350505050565b6115fc611d1f565b6015805460ff19811660ff90911615179055565b601480546109f790612aaa565b6000818152600260205260409020546060906001600160a01b031661169c5760405162461bcd60e51b815260206004820152602f60248201527f4552433732314d657461646174613a2055524920717565727920666f72206e6f60448201526e3732bc34b9ba32b73a103a37b5b2b760891b6064820152608401610aed565b601554610100900460ff1661173d57601380546116b890612aaa565b80601f01602080910402602001604051908101604052809291908181526020018280546116e490612aaa565b80156117315780601f1061170657610100808354040283529160200191611731565b820191906000526020600020905b81548152906001019060200180831161171457829003601f168201915b50505050509050919050565b6000611747611ff8565b9050600081511161176757604051806020016040528060008152506112ec565b8061177184612007565b601460405160200161178593929190612d14565b6040516020818303038152906040529392505050565b6117a3611d1f565b8051610e47906014906020840190612665565b6117be611d1f565b6015805463ff00000019811663010000009182900460ff1615909102179055565b60105460405163c455279160e01b81526001600160a01b03848116600483015260009281169190841690829063c45527919060240160206040518083038186803b15801561182c57600080fd5b505afa158015611840573d6000803e3d6000fd5b505050506040513d601f19601f820116820180604052508101906118649190612dd8565b6001600160a01b0316141561187d57600191505061092b565b6001600160a01b0380851660009081526005602090815260408083209387168352929052205460ff166115ec565b6118b3611d1f565b8051610e47906013906020840190612665565b6118ce611d1f565b6001600160a01b0381166119335760405162461bcd60e51b815260206004820152602660248201527f4f776e61626c653a206e6577206f776e657220697320746865207a65726f206160448201526564647265737360d01b6064820152608401610aed565b61193c81611dcb565b50565b6000818152600260205260409020546001600160a01b031661193c5760405162461bcd60e51b8152602060048201526018602482015277115490cdcc8c4e881a5b9d985b1a59081d1bdad95b88125160421b6044820152606401610aed565b600081815260046020526040902080546001600160a01b0319166001600160a01b03841690811790915581906119d382610e4b565b6001600160a01b03167f8c5be1e5ebec7d5bd14f71427d1e84f3dd0314c0f7b2291e5b200ac8c7c3b92560405160405180910390a45050565b80471015611a5c5760405162461bcd60e51b815260206004820152601d60248201527f416464726573733a20696e73756666696369656e742062616c616e63650000006044820152606401610aed565b6000826001600160a01b03168260405160006040518083038185875af1925050503d8060008114611aa9576040519150601f19603f3d011682016040523d82523d6000602084013e611aae565b606091505b5050905080610b8e5760405162461bcd60e51b815260206004820152603a60248201527f416464726573733a20756e61626c6520746f2073656e642076616c75652c207260448201527f6563697069656e74206d617920686176652072657665727465640000000000006064820152608401610aed565b600080611b3183610e4b565b9050806001600160a01b0316846001600160a01b03161480611b585750611b5881856117df565b806115ec5750836001600160a01b0316611b71846109c3565b6001600160a01b031614949350505050565b826001600160a01b0316611b9682610e4b565b6001600160a01b031614611bfa5760405162461bcd60e51b815260206004820152602560248201527f4552433732313a207472616e736665722066726f6d20696e636f72726563742060448201526437bbb732b960d91b6064820152608401610aed565b6001600160a01b038216611c5c5760405162461bcd60e51b8152602060048201526024808201527f4552433732313a207472616e7366657220746f20746865207a65726f206164646044820152637265737360e01b6064820152608401610aed565b611c6760008261199e565b6001600160a01b0383166000908152600360205260408120805460019290611c90908490612df5565b90915550506001600160a01b0382166000908152600360205260408120805460019290611cbe908490612b8c565b909155505060008181526002602052604080822080546001600160a01b0319166001600160a01b0386811691821790925591518493918716917fddf252ad1be2c89b69c2b068fc378daa952ba7f163c4a11628f55a4df523b3ef91a4505050565b6006546001600160a01b03163314610f505760405162461bcd60e51b815260206004820181905260248201527f4f776e61626c653a2063616c6c6572206973206e6f7420746865206f776e65726044820152606401610aed565b604080516001600160a01b038416602482015260448082018490528251808303909101815260649091019091526020810180516001600160e01b031663a9059cbb60e01b179052610b8e908490612105565b600680546001600160a01b038381166001600160a01b0319831681179093556040519116919082907f8be0079c531659141344cd1fd0a4f28419497f9722a3daafe3b4186f6b6457e090600090a35050565b600082611e2a85846121d7565b14949350505050565b60026007541415611e865760405162461bcd60e51b815260206004820152601f60248201527f5265656e7472616e637947756172643a207265656e7472616e742063616c6c006044820152606401610aed565b6002600755611e99601980546001019055565b6000611ea460195490565b9050611eb03382612224565b506001600755565b816001600160a01b0316836001600160a01b03161415611f1a5760405162461bcd60e51b815260206004820152601960248201527f4552433732313a20617070726f766520746f2063616c6c6572000000000000006044820152606401610aed565b6001600160a01b03838116600081815260056020908152604080832094871680845294825291829020805460ff191686151590811790915591519182527f17307eab39ab6107e8899845ad3d59bd9653f200f220920489ca2b5937696c31910160405180910390a3505050565b6008546001600160a01b0384166000908152600a602052604081205490918391611fb19086612c7e565b611fbb9190612e22565b6115ec9190612df5565b611fd0848484611b83565b611fdc8484848461223e565b6115145760405162461bcd60e51b8152600401610aed90612e36565b60606012805461094090612aaa565b60608161202b5750506040805180820190915260018152600360fc1b602082015290565b8160005b8115612055578061203f81612ce0565b915061204e9050600a83612e22565b915061202f565b60008167ffffffffffffffff8111156120705761207061288d565b6040519080825280601f01601f19166020018201604052801561209a576020820181803683370190505b5090505b84156115ec576120af600183612df5565b91506120bc600a86612e88565b6120c7906030612b8c565b60f81b8183815181106120dc576120dc612bf2565b60200101906001600160f81b031916908160001a9053506120fe600a86612e22565b945061209e565b600061215a826040518060400160405280602081526020017f5361666545524332303a206c6f772d6c6576656c2063616c6c206661696c6564815250856001600160a01b031661234b9092919063ffffffff16565b805190915015610b8e57808060200190518101906121789190612e9c565b610b8e5760405162461bcd60e51b815260206004820152602a60248201527f5361666545524332303a204552433230206f7065726174696f6e20646964206e6044820152691bdd081cdd58d8d9595960b21b6064820152608401610aed565b600081815b845181101561221c57612208828683815181106121fb576121fb612bf2565b602002602001015161235a565b91508061221481612ce0565b9150506121dc565b509392505050565b610e47828260405180602001604052806000815250612386565b60006001600160a01b0384163b1561234057604051630a85bd0160e11b81526001600160a01b0385169063150b7a0290612282903390899088908890600401612eb9565b602060405180830381600087803b15801561229c57600080fd5b505af19250505080156122cc575060408051601f3d908101601f191682019092526122c991810190612ef6565b60015b612326573d8080156122fa576040519150601f19603f3d011682016040523d82523d6000602084013e6122ff565b606091505b50805161231e5760405162461bcd60e51b8152600401610aed90612e36565b805181602001fd5b6001600160e01b031916630a85bd0160e11b1490506115ec565b506001949350505050565b60606115ec84846000856123b9565b60008183106123765760008281526020849052604090206112ec565b5060009182526020526040902090565b61239083836124ea565b61239d600084848461223e565b610b8e5760405162461bcd60e51b8152600401610aed90612e36565b60608247101561241a5760405162461bcd60e51b815260206004820152602660248201527f416464726573733a20696e73756666696369656e742062616c616e636520666f6044820152651c8818d85b1b60d21b6064820152608401610aed565b6001600160a01b0385163b6124715760405162461bcd60e51b815260206004820152601d60248201527f416464726573733a2063616c6c20746f206e6f6e2d636f6e74726163740000006044820152606401610aed565b600080866001600160a01b0316858760405161248d9190612f13565b60006040518083038185875af1925050503d80600081146124ca576040519150601f19603f3d011682016040523d82523d6000602084013e6124cf565b606091505b50915091506124df82828661262c565b979650505050505050565b6001600160a01b0382166125405760405162461bcd60e51b815260206004820181905260248201527f4552433732313a206d696e7420746f20746865207a65726f20616464726573736044820152606401610aed565b6000818152600260205260409020546001600160a01b0316156125a55760405162461bcd60e51b815260206004820152601c60248201527f4552433732313a20746f6b656e20616c7265616479206d696e746564000000006044820152606401610aed565b6001600160a01b03821660009081526003602052604081208054600192906125ce908490612b8c565b909155505060008181526002602052604080822080546001600160a01b0319166001600160a01b03861690811790915590518392907fddf252ad1be2c89b69c2b068fc378daa952ba7f163c4a11628f55a4df523b3ef908290a45050565b6060831561263b5750816112ec565b82511561264b5782518084602001fd5b8160405162461bcd60e51b8152600401610aed9190612789565b82805461267190612aaa565b90600052602060002090601f01602090048101928261269357600085556126d9565b82601f106126ac57805160ff19168380011785556126d9565b828001600101855582156126d9579182015b828111156126d95782518255916020019190600101906126be565b506126e59291506126e9565b5090565b5b808211156126e557600081556001016126ea565b6001600160e01b03198116811461193c57600080fd5b60006020828403121561272657600080fd5b81356112ec816126fe565b60005b8381101561274c578181015183820152602001612734565b838111156115145750506000910152565b60008151808452612775816020860160208601612731565b601f01601f19169290920160200192915050565b6020815260006112ec602083018461275d565b6000602082840312156127ae57600080fd5b5035919050565b6001600160a01b038116811461193c57600080fd5b600080604083850312156127dd57600080fd5b82356127e8816127b5565b946020939093013593505050565b60006020828403121561280857600080fd5b81356112ec816127b5565b60008060006060848603121561282857600080fd5b8335612833816127b5565b92506020840135612843816127b5565b929592945050506040919091013590565b6000806040838503121561286757600080fd5b8235612872816127b5565b91506020830135612882816127b5565b809150509250929050565b634e487b7160e01b600052604160045260246000fd5b600067ffffffffffffffff808411156128be576128be61288d565b604051601f8501601f19908116603f011681019082821181831017156128e6576128e661288d565b816040528093508581528686860111156128ff57600080fd5b858560208301376000602087830101525050509392505050565b60006020828403121561292b57600080fd5b813567ffffffffffffffff81111561294257600080fd5b8201601f8101841361295357600080fd5b6115ec848235602084016128a3565b6000806000806060858703121561297857600080fd5b8435612983816127b5565b935060208501359250604085013567ffffffffffffffff808211156129a757600080fd5b818701915087601f8301126129bb57600080fd5b8135818111156129ca57600080fd5b8860208260051b85010111156129df57600080fd5b95989497505060200194505050565b801515811461193c57600080fd5b60008060408385031215612a0f57600080fd5b8235612a1a816127b5565b91506020830135612882816129ee565b60008060008060808587031215612a4057600080fd5b8435612a4b816127b5565b93506020850135612a5b816127b5565b925060408501359150606085013567ffffffffffffffff811115612a7e57600080fd5b8501601f81018713612a8f57600080fd5b612a9e878235602084016128a3565b91505092959194509250565b600181811c90821680612abe57607f821691505b60208210811415612adf57634e487b7160e01b600052602260045260246000fd5b50919050565b60208082526026908201527f5061796d656e7453706c69747465723a206163636f756e7420686173206e6f2060408201526573686172657360d01b606082015260800190565b6020808252602b908201527f5061796d656e7453706c69747465723a206163636f756e74206973206e6f742060408201526a191d59481c185e5b595b9d60aa1b606082015260800190565b634e487b7160e01b600052601160045260246000fd5b60008219821115612b9f57612b9f612b76565b500190565b6020808252602e908201527f4552433732313a2063616c6c6572206973206e6f7420746f6b656e206f776e6560408201526d1c881b9bdc88185c1c1c9bdd995960921b606082015260800190565b634e487b7160e01b600052603260045260246000fd5b6020808252601290820152712737ba1030b63637bbb2b21037b934b3b4b760711b604082015260600190565b6020808252602a908201527f657468424c4f434b4945533a20596f752063616e2774206d696e7420736f206d60408201526975636820746f6b656e7360b01b606082015260800190565b6000816000190483118215151615612c9857612c98612b76565b500290565b60208082526023908201527f657468424c4f434b4945533a204e6f7420656e6f756768206574686572732073604082015262195b9d60ea1b606082015260800190565b6000600019821415612cf457612cf4612b76565b5060010190565b600060208284031215612d0d57600080fd5b5051919050565b600084516020612d278285838a01612731565b855191840191612d3a8184848a01612731565b8554920191600090600181811c9080831680612d5757607f831692505b858310811415612d7557634e487b7160e01b85526022600452602485fd5b808015612d895760018114612d9a57612dc7565b60ff19851688528388019550612dc7565b60008b81526020902060005b85811015612dbf5781548a820152908401908801612da6565b505083880195505b50939b9a5050505050505050505050565b600060208284031215612dea57600080fd5b81516112ec816127b5565b600082821015612e0757612e07612b76565b500390565b634e487b7160e01b600052601260045260246000fd5b600082612e3157612e31612e0c565b500490565b60208082526032908201527f4552433732313a207472616e7366657220746f206e6f6e20455243373231526560408201527131b2b4bb32b91034b6b83632b6b2b73a32b960711b606082015260800190565b600082612e9757612e97612e0c565b500690565b600060208284031215612eae57600080fd5b81516112ec816129ee565b6001600160a01b0385811682528416602082015260408101839052608060608201819052600090612eec9083018461275d565b9695505050505050565b600060208284031215612f0857600080fd5b81516112ec816126fe565b60008251612f25818460208701612731565b919091019291505056fea264697066735822122087307a45d8257727df8e9634026c445a54622b75c439e8739a6da00bb0ff0db264736f6c63430008090033697066733a2f2f516d4e746b57483364624e6d685a444c464a46707a3971456856777a4541425a434746535a5773784642363254572f68696464656e2e6a736f6e",
  "linkReferences": {},
  "deployedLinkReferences": {}
}